:1000000092C00000AFC00000ADC00000ABC0000057
:10001000A9C00000A7C00000A5C00000A3C0000048
:10002000A1C000009FC000009DC000009BC0000058
:1000300099C0000097C0000095C0000093C0000068
:1000400091C000000CC300008DC000008BC00000F8
:1000500089C0000087C0000085C0000083C0000088
:1000600081C000007FC000007DC000007BC0000098
:1000700079C000006EC4000075C0000073C00000AD
:1000800071C000006FC000006DC000006BC00000B8
:1000900069C0000067C0000065C0000063C00000C8
:1000A00061C000005FC0000001C200005BC0000032
:1000B00059C0000057C0000055C0000053C00000E8
:1000C00051C000004FC000004DC000004BC00000F8
:1000D00049C0000047C0000045C0000043C0000008
:1000E00041C00000C900E100CB00DF00DF00DF00FD
:1000F000DF00DF00DF00DF00CD00CF00D100DF0038
:10010000DF00DF00DF00DF00DF00DF00D300D5000D
:10011000D700DF00DF00DF00DF00DF00DF00DF00EF
:10012000DB00D900DD0011241FBECFEFD1E2DEBF1E
:10013000CDBF00E00CBF12E0A0E0B2E0E4ECFEE0D6
:1001400000E00BBF02C007900D92A035B107D9F7B0
:1001500022E0A0E5B2E001C01D92A636B207E1F7A9
:1001600042D4AEC64DCFFAD2CBD2D5D3AED143D442
:1001700040E060E070E0CB01BFD1A8C2089590E0FC
:1001800081329105E0F4FC018827EE58FF4F8F4F34
:100190007BC681E0089583E0089584E0089585E0BA
:1001A000089586E0089587E0089588E0089589E03D
:1001B000089580E008958EE1089580E208958FEF1C
:1001C000089582E00895CF92DF92EF92FF92E8D3F4
:1001D000C0905902D0905A02E0905B02F0905C020D
:1001E00041E0C701B60188D12091510230915202FD
:1001F0004091530250915402C701B6017CD4882328
:100200003CF460E087E087D261E086E084D21AC0E7
:1002100020910002309101024091020250910302AC
:10022000C701B601B7D518163CF461E087E073D278
:1002300060E086E070D206C060E086E06CD260E0EC
:1002400087E069D2FF90EF90DF90CF900895CF9232
:10025000DF92EF92FF92CF93DF9360915102709102
:100260005202809153029091540240E045D12FEF09
:1002700081EE94E0215080409040E1F700C0000002
:10028000D0E0C12CD12C7601B1D2803281F4DD23B3
:1002900009F446C0C0925102D0925202E092530239
:1002A000F092540241E0C701B60126D139C08E3127
:1002B00059F46091510270915202809153029091D1
:1002C000540240E019D12CC08F3F01F1DF5FD330E1
:1002D00021F4D1E0C12CD12C760151DFC82F20E0D0
:1002E00030E040E251E4C701B60158D56B017C0112
:1002F0006C2F70E080E090E09DD49B01AC01C701C1
:10030000B60195D36B017C0140E0F6D02FEF81EE72
:1003100094E0215080409040E1F700C00000B4CF4D
:10032000DF91CF91FF90EF90DF90CF900895CF9223
:10033000DF92EF92FF92CF93DF9360910002709172
:100340000102809102029091030241E0D5D02FEF8B
:1003500081EE94E0215080409040E1F700C0000021
:10036000D0E0C12CD12C760141D209DFC82F8032D8
:1003700081F4DD2309F43EC0C0920002D092010254
:10038000E0920202F092030241E0C701B601B4D04C
:1003900031C08E3159F46091000270910102809158
:1003A00002029091030240E0A7D024C08A30C0F43A
:1003B00020E030E040E251E4C701B601EFD46B0128
:1003C0007C016C2F70E080E090E034D49B01AC01A4
:1003D000C701B6012CD36B017C0141E08DD0DF5FFA
:1003E0002FEF81EE94E0215080409040E1F700C073
:1003F0000000BACFDF91CF91FF90EF90DF90CF90C8
:10040000089581E067D18823D9F081E0809350027C
:1004100061E081D160E082E07ED160E083E07BD169
:100420002FEF81EE94E0215080409040E1F700C032
:1004300000000DDF60E081E06ED11092500233C009
:1004400082E048D18823D9F081E08093500260E0B7
:1004500062D161E082E05FD160E083E05CD12FEFA8
:1004600081EE94E0215080409040E1F700C0000010
:100470005EDF60E082E04FD11092500214C083E052
:1004800029D1882359F060E081E045D160E082E025
:1004900042D161E083E03FD196DE05C080915002F9
:1004A000811101C090DE1092550208951F920F92A3
:1004B0000FB60F9211248F9381E0809355028F9194
:1004C0000F900FBE0F901F90189584B1876084B96C
:1004D00080B38F6080BB109280008BE0809381009E
:1004E00087EE93E09093890080938800EFE6F0E038
:1004F0008081826080830895CF92DF92EF92FF9295
:100500001F93CF93DF936B017C01142F60D3EB011A
:10051000072E000C880B990B8DD39B01AC01C701F2
:10052000B60184D220E030E048EC52E437D44FD317
:100530006B017C012AE030E0CE01B90192D4EEE5F6
:10054000F2E060838183C601B9018BD46283838327
:10055000E081F0E0E25FFD4F808180936202112331
:1005600049F0E0915F02F0E0EC5FFD4F8081809305
:10057000630208C0E0915F02F0E0E25FFD4F80811E
:1005800080936302CEE5D2E0EA81F0E0E25FFD4FC6
:100590008081A2E6B2E012968C931297EB81F0E094
:1005A000E25FFD4F808113968C93DF91CF911F9175
:1005B000FF90EF90DF90CF90089591B39F6091BB33
:1005C00091B321E030E002C0220F331F8A95E2F799
:1005D0002095292321BB089585B1826085B985B115
:1005E0008D7F85B9089585B1816085B985B18E7F8C
:1005F00085B908950F931F93CF93DF93082FE82FAA
:10060000F0E0EE59FD4F1081C0E0D0E005C085B1AB
:100610008B7F85B9E1DF2196C830D105C4F3802FE7
:10062000CCDFC0E0D0E012C085B18B7F85B9812FCF
:1006300090E00C2E02C0959587950A94E2F780FD14
:1006400003C085B1846085B9C7DF2196C830D10564
:100650005CF3C9DFDF91CF911F910F9108951F9235
:100660000F920FB60F9211240BB60F922F933F9358
:100670004F935F936F937F938F939F93AF93BF93AA
:10068000EF93FF9380915602B5DF8091560290E080
:10069000019683709078992324F401978C6F9F6F53
:1006A000019680935602FF91EF91BF91AF919F9178
:1006B0008F917F916F915F914F913F912F910F900B
:1006C0000BBE0F900FBE0F901F90189517B88FEFAD
:1006D00088B908959FEF980F963080F496B1282F2F
:1006E00030E021503109892F90E002C0959587951F
:1006F0002A95E2F721E082278170089580E008952D
:100700008FEF81B982B908958150883010F481E06B
:10071000089580E00895CF93DF93C82FD62FF4DF9C
:100720008823C9F0C150D13061F422B181E090E05A
:1007300002C0880F991FCA95E2F78095822382B97B
:100740000AC022B181E090E002C0880F991FCA95CB
:10075000E2F7822B82B9DF91CF910895CF93DF9397
:1007600040E03EC0842F90E0FC01EE0FFF1FEE0F33
:10077000FF1FEE0FFF1FE81BF90BDF01AC5CBD4F45
:10078000CD91DC911197588181E090E09C01169603
:100790000C90169702C0220F331F0A94E2F7352FF0
:1007A000322B388314960D90BC91A02D3C9120954E
:1007B00023232C93E85EFD4FA081B1812C9106800C
:1007C00002C0880F991F0A94E2F7982F9095922300
:1007D0009C930480F581E02D9081892B80834F5F6D
:1007E000443008F4BFCFDF91CF91089520E01BC0C3
:1007F000822F90E0FC01EE0FFF1FEE0FFF1FEE0FA8
:10080000FF1FE81BF90BEC5CFD4FA481B5813C9107
:1008100081E090E0068002C0880F991F0A94E2F7F9
:10082000832B8C932F5F243018F330E068C0632F44
:1008300070E0FB01EE0FFF1FEE0FFF1FEE0FFF1F1B
:10084000E61BF70BEC5CFD4FA481B5812C9181E098
:1008500090E0068002C0880F991F0A94E2F7809505
:1008600082238C9320E030C0422F50E0FA01EE0F3B
:10087000FF1FEE0FFF1FEE0FFF1FE41BF50BE85EDF
:10088000FD4FA281B3818C9190E0068002C09595C6
:1008900087950A94E2F780FD16C0CB01880F991F57
:1008A000660F771F660F771F660F771F680F791F18
:1008B000460F571F5093580240935702809157029A
:1008C0009091580208952F5F243070F2FB01EE0FD3
:1008D000FF1FEE0FFF1FEE0FFF1FE61BF70BEC5C79
:1008E000FD4FA481B5812C9181E090E0068002C08B
:1008F000880F991F0A94E2F7822B8C933F5F343064
:1009000008F495CF8FEF089583B3816083BB84B3E0
:10091000816084BB0895E7E0F1E080818F77808378
:10092000F3DFECE7F0E0808187668083EBE7F0E0BF
:10093000808188608083EAE7F0E080818C6A808330
:1009400080818064808308958091790080935D0226
:1009500008951F920F920FB60F9211240BB60F92AB
:100960002F933F934F935F936F937F938F939F93B7
:10097000AF93BF93EF93FF93E7DFFF91EF91BF91A9
:10098000AF919F918F917F916F915F914F913F9127
:100990002F910F900BBE0F900FBE0F901F901895C8
:1009A00060915D0270E080E090E044D120E030E0B2
:1009B00040E85BE3F3D120E030E040EA50E4EED1E0
:1009C00020E030E040E05FE331D02AE037ED43E261
:1009D0005CE395D06093590270935A0280935B0256
:1009E00090935C020895BFDB789480915502882330
:1009F000E1F307DDFACFA0EAB0E01C92E1EAF0E013
:100A000010828081886080838C9180648C93808147
:100A10008560808388E09DE39093A9008093A8007F
:100A2000E2E7F0E080818260808308955058BB2720
:100A3000AA270ED075C166D130F06BD120F031F409
:100A40009F3F11F41EF45BC10EF4E095E7FB51C12A
:100A5000E92F77D180F3BA176207730784079507E8
:100A600018F071F49EF58FC10EF4E0950B2EBA2F9D
:100A7000A02D0B01B90190010C01CA01A0011124A4
:100A8000FF27591B99F0593F50F4503E68F11A1650
:100A9000F040A22F232F342F4427585FF3CF4695E1
:100AA00037952795A795F0405395C9F77EF41F1603
:100AB000BA0B620B730B840BBAF09150A1F0FF0FCD
:100AC000BB1F661F771F881FC2F70EC0BA0F621FB9
:100AD000731F841F48F4879577956795B795F795A9
:100AE0009E3F08F0B3CF9395880F08F09927EE0F3B
:100AF000979587950895D9D008F481E008950CD092
:100B00000FC107D140F0FED030F021F45F3F19F063
:100B1000F0C0511139C1F3C014D198F39923C9F32E
:100B20005523B1F3951B550BBB27AA2762177307F3
:100B3000840738F09F5F5F4F220F331F441FAA1FA7
:100B4000A9F333D00E2E3AF0E0E830D09150504067
:100B5000E695001CCAF729D0FE2F27D0660F771F15
:100B6000881FBB1F261737074807AB07B0E809F0F7
:100B7000BB0B802DBF01FF2793585F4F2AF09E3F8C
:100B8000510568F0B6C000C15F3FECF3983EDCF35E
:100B9000869577956795B795F7959F5FC9F7880F05
:100BA000911D9695879597F90895E1E0660F771F57
:100BB000881FBB1F621773078407BA0720F0621BE8
:100BC000730B840BBA0BEE1F88F7E095089504D0E1
:100BD0006894B111D9C00895BCD088F09F5790F0A7
:100BE000B92F9927B751A0F0D1F0660F771F881F52
:100BF000991F1AF0BA95C9F712C0B13081F0C3D06D
:100C0000B1E00895C0C0672F782F8827B85F39F00A
:100C1000B93FCCF3869577956795B395D9F73EF4B0
:100C200090958095709561957F4F8F4F9F4F089558
:100C3000E89409C097FB3EF4909580957095619576
:100C40007F4F8F4F9F4F9923A9F0F92F96E9BB272C
:100C50009395F695879577956795B795F111F8CFA8
:100C6000FAF4BB0F11F460FF1BC06F5F7F4F8F4F13
:100C70009F4F16C0882311F096E911C0772321F009
:100C80009EE8872F762F05C0662371F096E8862FA1
:100C900070E060E02AF09A95660F771F881FDAF7F8
:100CA000880F9695879597F90895990F0008550F25
:100CB000AA0BE0E8FEEF16161706E807F907C0F0E2
:100CC00012161306E407F50798F0621B730B840BEA
:100CD000950B39F40A2661F0232B242B252B21F4C4
:100CE00008950A2609F4A140A6958FEF811D811D64
:100CF000089597F99F6780E870E060E008959FEF9E
:100D000080EC089500240A941616170618060906A2
:100D1000089500240A941216130614060506089571
:100D2000092E0394000C11F4882352F0BB0F40F4F9
:100D3000BF2B11F460FF04C06F5F7F4F8F4F9F4F39
:100D4000089557FD9058440F551F59F05F3F71F0BB
:100D50004795880F97FB991F61F09F3F79F0879522
:100D60000895121613061406551FF2CF4695F1DFAB
:100D700008C0161617061806991FF1CF869571053B
:100D8000610508940895E894BB2766277727CB016F
:100D900097F908958ADF08F48FEF08950BD0C0CF3C
:100DA000B1DF28F0B6DF18F0952309F0A2CFA7CF66
:100DB0001124EACFC6DFA0F3959FD1F3950F50E041
:100DC000551F629FF001729FBB27F00DB11D639FFD
:100DD000AA27F00DB11DAA1F649F6627B00DA11DA3
:100DE000661F829F2227B00DA11D621F739FB00D49
:100DF000A11D621F839FA00D611D221F749F3327B9
:100E0000A00D611D231F849F600D211D822F762F51
:100E10006A2F11249F5750408AF0E1F088234AF04E
:100E2000EE0FFF1FBB1F661F771F881F915050409A
:100E3000A9F79E3F510570F05CCFA6CF5F3FECF362
:100E4000983EDCF3869577956795B795F795E79586
:100E50009F5FC1F7FE2B880F911D9695879597F997
:100E6000089597FB072E16F4009406D077FD08D05E
:100E700013D007FC05D03EF4909581959F4F0895BF
:100E8000709561957F4F0895EE0FFF1F881F8BBFF0
:100E90000790F691E02D1994AA1BBB1B51E107C0E6
:100EA000AA1FBB1FA617B70710F0A61BB70B881FFA
:100EB000991F5A95A9F780959095BC01CD01089589
:040EC000F894FFCFD4
:100EC4000000C841FD61DBF367B7BFE1FFF7FC60D9
:100ED400DAF266B6BEE0FEF62D002C002E00050107
:100EE400010001020103010100010201050A0109D7
:100EF400010B010124002300250007240023002501
:100F04000005240023002500042D002C002E0003DE
:00000001FF
